{
    "abi": [
        {
            "inputs": [
                {
                    "internalType": "string",
                    "name": "name",
                    "type": "string"
                },
                {
                    "internalType": "string",
                    "name": "symbol",
                    "type": "string"
                }
            ],
            "stateMutability": "nonpayable",
            "type": "constructor"
        },
        {
            "anonymous": false,
            "inputs": [
                {
                    "indexed": true,
                    "internalType": "address",
                    "name": "owner",
                    "type": "address"
                },
                {
                    "indexed": true,
                    "internalType": "address",
                    "name": "approved",
                    "type": "address"
                },
                {
                    "indexed": true,
                    "internalType": "uint256",
                    "name": "tokenId",
                    "type": "uint256"
                }
            ],
            "name": "Approval",
            "type": "event"
        },
        {
            "anonymous": false,
            "inputs": [
                {
                    "indexed": true,
                    "internalType": "address",
                    "name": "owner",
                    "type": "address"
                },
                {
                    "indexed": true,
                    "internalType": "address",
                    "name": "operator",
                    "type": "address"
                },
                {
                    "indexed": false,
                    "internalType": "bool",
                    "name": "approved",
                    "type": "bool"
                }
            ],
            "name": "ApprovalForAll",
            "type": "event"
        },
        {
            "anonymous": false,
            "inputs": [
                {
                    "indexed": false,
                    "internalType": "uint256",
                    "name": "amount",
                    "type": "uint256"
                }
            ],
            "name": "CommissionWithdrawn",
            "type": "event"
        },
        {
            "anonymous": false,
            "inputs": [
                {
                    "indexed": true,
                    "internalType": "address",
                    "name": "to",
                    "type": "address"
                },
                {
                    "indexed": true,
                    "internalType": "address",
                    "name": "contractAdddr",
                    "type": "address"
                },
                {
                    "indexed": true,
                    "internalType": "uint256",
                    "name": "tokenId",
                    "type": "uint256"
                },
                {
                    "indexed": false,
                    "internalType": "uint256",
                    "name": "newTokenId",
                    "type": "uint256"
                },
                {
                    "indexed": false,
                    "internalType": "uint256",
                    "name": "amount",
                    "type": "uint256"
                }
            ],
            "name": "Mint",
            "type": "event"
        },
        {
            "anonymous": false,
            "inputs": [
                {
                    "indexed": true,
                    "internalType": "address",
                    "name": "previousOwner",
                    "type": "address"
                },
                {
                    "indexed": true,
                    "internalType": "address",
                    "name": "newOwner",
                    "type": "address"
                }
            ],
            "name": "OwnershipTransferred",
            "type": "event"
        },
        {
            "anonymous": false,
            "inputs": [
                {
                    "indexed": false,
                    "internalType": "address",
                    "name": "account",
                    "type": "address"
                }
            ],
            "name": "Paused",
            "type": "event"
        },
        {
            "anonymous": false,
            "inputs": [
                {
                    "indexed": true,
                    "internalType": "uint256",
                    "name": "tokenId",
                    "type": "uint256"
                },
                {
                    "indexed": false,
                    "internalType": "uint256",
                    "name": "amount",
                    "type": "uint256"
                },
                {
                    "indexed": false,
                    "internalType": "uint256",
                    "name": "discount",
                    "type": "uint256"
                }
            ],
            "name": "Refund",
            "type": "event"
        },
        {
            "anonymous": false,
            "inputs": [
                {
                    "indexed": true,
                    "internalType": "address",
                    "name": "from",
                    "type": "address"
                },
                {
                    "indexed": true,
                    "internalType": "address",
                    "name": "to",
                    "type": "address"
                },
                {
                    "indexed": true,
                    "internalType": "uint256",
                    "name": "tokenId",
                    "type": "uint256"
                }
            ],
            "name": "Transfer",
            "type": "event"
        },
        {
            "anonymous": false,
            "inputs": [
                {
                    "indexed": true,
                    "internalType": "address",
                    "name": "from",
                    "type": "address"
                },
                {
                    "indexed": true,
                    "internalType": "address",
                    "name": "to",
                    "type": "address"
                },
                {
                    "indexed": true,
                    "internalType": "uint256",
                    "name": "tokenId",
                    "type": "uint256"
                },
                {
                    "indexed": false,
                    "internalType": "uint256",
                    "name": "amount",
                    "type": "uint256"
                },
                {
                    "indexed": false,
                    "internalType": "uint256",
                    "name": "discount",
                    "type": "uint256"
                }
            ],
            "name": "TransferDiscount",
            "type": "event"
        },
        {
            "anonymous": false,
            "inputs": [
                {
                    "indexed": false,
                    "internalType": "address",
                    "name": "account",
                    "type": "address"
                }
            ],
            "name": "Unpaused",
            "type": "event"
        },
        {
            "inputs": [],
            "name": "_burnDiscount",
            "outputs": [
                {
                    "internalType": "uint256",
                    "name": "",
                    "type": "uint256"
                }
            ],
            "stateMutability": "view",
            "type": "function"
        },
        {
            "inputs": [],
            "name": "_commission",
            "outputs": [
                {
                    "internalType": "uint256",
                    "name": "",
                    "type": "uint256"
                }
            ],
            "stateMutability": "view",
            "type": "function"
        },
        {
            "inputs": [
                {
                    "internalType": "uint256",
                    "name": "",
                    "type": "uint256"
                }
            ],
            "name": "_etherBalances",
            "outputs": [
                {
                    "internalType": "uint256",
                    "name": "",
                    "type": "uint256"
                }
            ],
            "stateMutability": "view",
            "type": "function"
        },
        {
            "inputs": [],
            "name": "_mintPrice",
            "outputs": [
                {
                    "internalType": "uint256",
                    "name": "",
                    "type": "uint256"
                }
            ],
            "stateMutability": "view",
            "type": "function"
        },
        {
            "inputs": [],
            "name": "_nextTokenId",
            "outputs": [
                {
                    "internalType": "uint256",
                    "name": "",
                    "type": "uint256"
                }
            ],
            "stateMutability": "view",
            "type": "function"
        },
        {
            "inputs": [
                {
                    "internalType": "uint256",
                    "name": "",
                    "type": "uint256"
                }
            ],
            "name": "_tokenId2contract",
            "outputs": [
                {
                    "internalType": "address",
                    "name": "",
                    "type": "address"
                }
            ],
            "stateMutability": "view",
            "type": "function"
        },
        {
            "inputs": [
                {
                    "internalType": "uint256",
                    "name": "",
                    "type": "uint256"
                }
            ],
            "name": "_tokenId2oriTokenId",
            "outputs": [
                {
                    "internalType": "uint256",
                    "name": "",
                    "type": "uint256"
                }
            ],
            "stateMutability": "view",
            "type": "function"
        },
        {
            "inputs": [],
            "name": "_transferDiscount",
            "outputs": [
                {
                    "internalType": "uint256",
                    "name": "",
                    "type": "uint256"
                }
            ],
            "stateMutability": "view",
            "type": "function"
        },
        {
            "inputs": [
                {
                    "internalType": "bytes32",
                    "name": "",
                    "type": "bytes32"
                }
            ],
            "name": "_uniques",
            "outputs": [
                {
                    "internalType": "uint256",
                    "name": "",
                    "type": "uint256"
                }
            ],
            "stateMutability": "view",
            "type": "function"
        },
        {
            "inputs": [
                {
                    "internalType": "address",
                    "name": "to",
                    "type": "address"
                },
                {
                    "internalType": "uint256",
                    "name": "tokenId",
                    "type": "uint256"
                }
            ],
            "name": "approve",
            "outputs": [],
            "stateMutability": "nonpayable",
            "type": "function"
        },
        {
            "inputs": [
                {
                    "internalType": "address",
                    "name": "owner",
                    "type": "address"
                }
            ],
            "name": "balanceOf",
            "outputs": [
                {
                    "internalType": "uint256",
                    "name": "",
                    "type": "uint256"
                }
            ],
            "stateMutability": "view",
            "type": "function"
        },
        {
            "inputs": [
                {
                    "internalType": "uint256",
                    "name": "tokenId",
                    "type": "uint256"
                }
            ],
            "name": "getApproved",
            "outputs": [
                {
                    "internalType": "address",
                    "name": "",
                    "type": "address"
                }
            ],
            "stateMutability": "view",
            "type": "function"
        },
        {
            "inputs": [
                {
                    "internalType": "address",
                    "name": "owner",
                    "type": "address"
                },
                {
                    "internalType": "address",
                    "name": "operator",
                    "type": "address"
                }
            ],
            "name": "isApprovedForAll",
            "outputs": [
                {
                    "internalType": "bool",
                    "name": "",
                    "type": "bool"
                }
            ],
            "stateMutability": "view",
            "type": "function"
        },
        {
            "inputs": [
                {
                    "internalType": "address",
                    "name": "to",
                    "type": "address"
                },
                {
                    "internalType": "address",
                    "name": "contractAddr",
                    "type": "address"
                },
                {
                    "internalType": "uint256",
                    "name": "tokenId",
                    "type": "uint256"
                }
            ],
            "name": "mint",
            "outputs": [
                {
                    "internalType": "uint256",
                    "name": "",
                    "type": "uint256"
                }
            ],
            "stateMutability": "payable",
            "type": "function"
        },
        {
            "inputs": [],
            "name": "name",
            "outputs": [
                {
                    "internalType": "string",
                    "name": "",
                    "type": "string"
                }
            ],
            "stateMutability": "view",
            "type": "function"
        },
        {
            "inputs": [
                {
                    "internalType": "address",
                    "name": "owner",
                    "type": "address"
                }
            ],
            "name": "ownedTokensByAddress",
            "outputs": [
                {
                    "internalType": "uint256[]",
                    "name": "",
                    "type": "uint256[]"
                }
            ],
            "stateMutability": "view",
            "type": "function"
        },
        {
            "inputs": [],
            "name": "owner",
            "outputs": [
                {
                    "internalType": "address",
                    "name": "",
                    "type": "address"
                }
            ],
            "stateMutability": "view",
            "type": "function"
        },
        {
            "inputs": [
                {
                    "internalType": "uint256",
                    "name": "tokenId",
                    "type": "uint256"
                }
            ],
            "name": "ownerOf",
            "outputs": [
                {
                    "internalType": "address",
                    "name": "",
                    "type": "address"
                }
            ],
            "stateMutability": "view",
            "type": "function"
        },
        {
            "inputs": [],
            "name": "pause",
            "outputs": [],
            "stateMutability": "nonpayable",
            "type": "function"
        },
        {
            "inputs": [],
            "name": "paused",
            "outputs": [
                {
                    "internalType": "bool",
                    "name": "",
                    "type": "bool"
                }
            ],
            "stateMutability": "view",
            "type": "function"
        },
        {
            "inputs": [
                {
                    "internalType": "uint256",
                    "name": "tokenId",
                    "type": "uint256"
                }
            ],
            "name": "refund",
            "outputs": [],
            "stateMutability": "nonpayable",
            "type": "function"
        },
        {
            "inputs": [],
            "name": "renounceOwnership",
            "outputs": [],
            "stateMutability": "nonpayable",
            "type": "function"
        },
        {
            "inputs": [
                {
                    "internalType": "address",
                    "name": "from",
                    "type": "address"
                },
                {
                    "internalType": "address",
                    "name": "to",
                    "type": "address"
                },
                {
                    "internalType": "uint256",
                    "name": "tokenId",
                    "type": "uint256"
                }
            ],
            "name": "safeTransferFrom",
            "outputs": [],
            "stateMutability": "nonpayable",
            "type": "function"
        },
        {
            "inputs": [
                {
                    "internalType": "address",
                    "name": "from",
                    "type": "address"
                },
                {
                    "internalType": "address",
                    "name": "to",
                    "type": "address"
                },
                {
                    "internalType": "uint256",
                    "name": "tokenId",
                    "type": "uint256"
                },
                {
                    "internalType": "bytes",
                    "name": "_data",
                    "type": "bytes"
                }
            ],
            "name": "safeTransferFrom",
            "outputs": [],
            "stateMutability": "nonpayable",
            "type": "function"
        },
        {
            "inputs": [
                {
                    "internalType": "address",
                    "name": "operator",
                    "type": "address"
                },
                {
                    "internalType": "bool",
                    "name": "approved",
                    "type": "bool"
                }
            ],
            "name": "setApprovalForAll",
            "outputs": [],
            "stateMutability": "nonpayable",
            "type": "function"
        },
        {
            "inputs": [
                {
                    "internalType": "bytes4",
                    "name": "interfaceId",
                    "type": "bytes4"
                }
            ],
            "name": "supportsInterface",
            "outputs": [
                {
                    "internalType": "bool",
                    "name": "",
                    "type": "bool"
                }
            ],
            "stateMutability": "view",
            "type": "function"
        },
        {
            "inputs": [],
            "name": "symbol",
            "outputs": [
                {
                    "internalType": "string",
                    "name": "",
                    "type": "string"
                }
            ],
            "stateMutability": "view",
            "type": "function"
        },
        {
            "inputs": [
                {
                    "internalType": "uint256",
                    "name": "index",
                    "type": "uint256"
                }
            ],
            "name": "tokenByIndex",
            "outputs": [
                {
                    "internalType": "uint256",
                    "name": "",
                    "type": "uint256"
                }
            ],
            "stateMutability": "view",
            "type": "function"
        },
        {
            "inputs": [
                {
                    "internalType": "address",
                    "name": "owner",
                    "type": "address"
                },
                {
                    "internalType": "uint256",
                    "name": "index",
                    "type": "uint256"
                }
            ],
            "name": "tokenOfOwnerByIndex",
            "outputs": [
                {
                    "internalType": "uint256",
                    "name": "",
                    "type": "uint256"
                }
            ],
            "stateMutability": "view",
            "type": "function"
        },
        {
            "inputs": [
                {
                    "internalType": "uint256",
                    "name": "tokenId",
                    "type": "uint256"
                }
            ],
            "name": "tokenURI",
            "outputs": [
                {
                    "internalType": "string",
                    "name": "",
                    "type": "string"
                }
            ],
            "stateMutability": "view",
            "type": "function"
        },
        {
            "inputs": [],
            "name": "totalSupply",
            "outputs": [
                {
                    "internalType": "uint256",
                    "name": "",
                    "type": "uint256"
                }
            ],
            "stateMutability": "view",
            "type": "function"
        },
        {
            "inputs": [
                {
                    "internalType": "address",
                    "name": "from",
                    "type": "address"
                },
                {
                    "internalType": "address",
                    "name": "to",
                    "type": "address"
                },
                {
                    "internalType": "uint256",
                    "name": "tokenId",
                    "type": "uint256"
                }
            ],
            "name": "transferFrom",
            "outputs": [],
            "stateMutability": "nonpayable",
            "type": "function"
        },
        {
            "inputs": [
                {
                    "internalType": "address",
                    "name": "newOwner",
                    "type": "address"
                }
            ],
            "name": "transferOwnership",
            "outputs": [],
            "stateMutability": "nonpayable",
            "type": "function"
        },
        {
            "inputs": [],
            "name": "unpause",
            "outputs": [],
            "stateMutability": "nonpayable",
            "type": "function"
        },
        {
            "inputs": [],
            "name": "withdrawCommission",
            "outputs": [
                {
                    "internalType": "uint256",
                    "name": "",
                    "type": "uint256"
                }
            ],
            "stateMutability": "nonpayable",
            "type": "function"
        }
    ],
    "bytecode": {
        "object": "0x60806040523480156200001157600080fd5b50604051620028f2380380620028f2833981016040819052620000349162000255565b8151829082906200004d906000906020850190620000e2565b50805162000063906001906020840190620000e2565b50506001600a5550620000763362000090565b5050600b805460ff60a01b191690556001601155620002fc565b600b80546001600160a01b038381166001600160a01b0319831681179093556040519116919082907f8be0079c531659141344cd1fd0a4f28419497f9722a3daafe3b4186f6b6457e090600090a35050565b828054620000f090620002bf565b90600052602060002090601f0160209004810192826200011457600085556200015f565b82601f106200012f57805160ff19168380011785556200015f565b828001600101855582156200015f579182015b828111156200015f57825182559160200191906001019062000142565b506200016d92915062000171565b5090565b5b808211156200016d576000815560010162000172565b634e487b7160e01b600052604160045260246000fd5b600082601f830112620001b057600080fd5b81516001600160401b0380821115620001cd57620001cd62000188565b604051601f8301601f19908116603f01168101908282118183101715620001f857620001f862000188565b816040528381526020925086838588010111156200021557600080fd5b600091505b838210156200023957858201830151818301840152908201906200021a565b838211156200024b5760008385830101525b9695505050505050565b600080604083850312156200026957600080fd5b82516001600160401b03808211156200028157600080fd5b6200028f868387016200019e565b93506020850151915080821115620002a657600080fd5b50620002b5858286016200019e565b9150509250929050565b600181811c90821680620002d457607f821691505b60208210811415620002f657634e487b7160e01b600052602260045260246000fd5b50919050565b6125e6806200030c6000396000f3fe6080604052600436106102045760003560e01c8063666b6cd511610118578063c287f2d1116100a0578063c87b56dd1161006f578063c87b56dd146105cf578063dba028c2146105ef578063e985e9c51461061c578063f0207fb114610665578063f2fde38b1461067b57600080fd5b8063c287f2d11461052c578063c409869214610559578063c6c3bbe614610586578063c71bd2431461059957600080fd5b80638da5cb5b116100e75780638da5cb5b1461048c57806395d89b41146104aa578063a22cb465146104bf578063b4496337146104df578063b88d4fde1461050c57600080fd5b8063666b6cd51461042d57806370a0823114610442578063715018a6146104625780638456cb591461047757600080fd5b8063278ecde11161019b57806342842e0e1161016a57806342842e0e146103985780634a60f620146103b85780634f6ccce7146103ce5780635c975abb146103ee5780636352211e1461040d57600080fd5b8063278ecde11461032e5780632f745c591461034e5780633e25e8371461036e5780633f4ba83a1461038357600080fd5b8063095ea7b3116101d7578063095ea7b3146102c25780630a1d6b65146102e457806318160ddd146102f957806323b872dd1461030e57600080fd5b806301ffc9a7146102095780630387da421461023e57806306fdde0314610268578063081812fc1461028a575b600080fd5b34801561021557600080fd5b50610229610224366004611fbd565b61069b565b60405190151581526020015b60405180910390f35b34801561024a57600080fd5b5061025a67016345785d8a000081565b604051908152602001610235565b34801561027457600080fd5b5061027d6106c6565b6040516102359190612032565b34801561029657600080fd5b506102aa6102a5366004612045565b610758565b6040516001600160a01b039091168152602001610235565b3480156102ce57600080fd5b506102e26102dd36600461207a565b6107f2565b005b3480156102f057600080fd5b5061025a600a81565b34801561030557600080fd5b5060085461025a565b34801561031a57600080fd5b506102e26103293660046120a4565b610908565b34801561033a57600080fd5b506102e2610349366004612045565b610939565b34801561035a57600080fd5b5061025a61036936600461207a565b610aaa565b34801561037a57600080fd5b5061025a610b40565b34801561038f57600080fd5b506102e2610c0a565b3480156103a457600080fd5b506102e26103b33660046120a4565b610c3e565b3480156103c457600080fd5b5061025a60115481565b3480156103da57600080fd5b5061025a6103e9366004612045565b610c59565b3480156103fa57600080fd5b50600b54600160a01b900460ff16610229565b34801561041957600080fd5b506102aa610428366004612045565b610cec565b34801561043957600080fd5b5061025a600581565b34801561044e57600080fd5b5061025a61045d3660046120e0565b610d63565b34801561046e57600080fd5b506102e2610dea565b34801561048357600080fd5b506102e2610e1e565b34801561049857600080fd5b50600b546001600160a01b03166102aa565b3480156104b657600080fd5b5061027d610e50565b3480156104cb57600080fd5b506102e26104da3660046120fb565b610e5f565b3480156104eb57600080fd5b5061025a6104fa366004612045565b600f6020526000908152604090205481565b34801561051857600080fd5b506102e26105273660046121a6565b610e6e565b34801561053857600080fd5b5061025a610547366004612045565b600d6020526000908152604090205481565b34801561056557600080fd5b5061025a610574366004612045565b600e6020526000908152604090205481565b61025a6105943660046120a4565b610ea6565b3480156105a557600080fd5b506102aa6105b4366004612045565b600c602052600090815260409020546001600160a01b031681565b3480156105db57600080fd5b5061027d6105ea366004612045565b6110f1565b3480156105fb57600080fd5b5061060f61060a3660046120e0565b611203565b6040516102359190612251565b34801561062857600080fd5b50610229610637366004612295565b6001600160a01b03918216600090815260056020908152604080832093909416825291909152205460ff1690565b34801561067157600080fd5b5061025a60105481565b34801561068757600080fd5b506102e26106963660046120e0565b6112a5565b60006001600160e01b0319821663780e9d6360e01b14806106c057506106c082611340565b92915050565b6060600080546106d5906122c8565b80601f0160208091040260200160405190810160405280929190818152602001828054610701906122c8565b801561074e5780601f106107235761010080835404028352916020019161074e565b820191906000526020600020905b81548152906001019060200180831161073157829003601f168201915b5050505050905090565b6000818152600260205260408120546001600160a01b03166107d65760405162461bcd60e51b815260206004820152602c60248201527f4552433732313a20617070726f76656420717565727920666f72206e6f6e657860448201526b34b9ba32b73a103a37b5b2b760a11b60648201526084015b60405180910390fd5b506000908152600460205260409020546001600160a01b031690565b60006107fd82610cec565b9050806001600160a01b0316836001600160a01b0316141561086b5760405162461bcd60e51b815260206004820152602160248201527f4552433732313a20617070726f76616c20746f2063757272656e74206f776e656044820152603960f91b60648201526084016107cd565b336001600160a01b038216148061088757506108878133610637565b6108f95760405162461bcd60e51b815260206004820152603860248201527f4552433732313a20617070726f76652063616c6c6572206973206e6f74206f7760448201527f6e6572206e6f7220617070726f76656420666f7220616c6c000000000000000060648201526084016107cd565b6109038383611390565b505050565b61091233826113fe565b61092e5760405162461bcd60e51b81526004016107cd90612303565b6109038383836114f5565b6002600a54141561095c5760405162461bcd60e51b81526004016107cd90612354565b6002600a553361096b82610cec565b6001600160a01b0316146109c15760405162461bcd60e51b815260206004820152601c60248201527f53796e7468657469634e46543a206d757374206f776e20746f6b656e0000000060448201526064016107cd565b6109ca8161169c565b6000818152600f60205260408120546064906109e890600a906123a1565b6109f291906123c0565b6000838152600f602052604081205491925090610a109083906123e2565b90508160106000828254610a2491906123f9565b90915550506000838152600f602052604080822082905551339183156108fc02918491818181858888f19350505050158015610a64573d6000803e3d6000fd5b50604080518281526020810184905284917faf75745f7008ec1758a2b1ac2a9f510ae299542d33c316edcb8e1d6b899c8fc9910160405180910390a250506001600a5550565b6000610ab583610d63565b8210610b175760405162461bcd60e51b815260206004820152602b60248201527f455243373231456e756d657261626c653a206f776e657220696e646578206f7560448201526a74206f6620626f756e647360a81b60648201526084016107cd565b506001600160a01b03919091166000908152600660209081526040808320938352929052205490565b60006002600a541415610b655760405162461bcd60e51b81526004016107cd90612354565b6002600a55600b546001600160a01b03163314610b945760405162461bcd60e51b81526004016107cd90612411565b601080546000918290556040519091339183156108fc0291849190818181858888f19350505050158015610bcc573d6000803e3d6000fd5b506040518181527fc2bb3206848157e57e737eec7e141f06f5de585e2f1c0f0ec60a04f45a2c00319060200160405180910390a190506001600a5590565b600b546001600160a01b03163314610c345760405162461bcd60e51b81526004016107cd90612411565b610c3c611743565b565b61090383838360405180602001604052806000815250610e6e565b6000610c6460085490565b8210610cc75760405162461bcd60e51b815260206004820152602c60248201527f455243373231456e756d657261626c653a20676c6f62616c20696e646578206f60448201526b7574206f6620626f756e647360a01b60648201526084016107cd565b60088281548110610cda57610cda612446565b90600052602060002001549050919050565b6000818152600260205260408120546001600160a01b0316806106c05760405162461bcd60e51b815260206004820152602960248201527f4552433732313a206f776e657220717565727920666f72206e6f6e657869737460448201526832b73a103a37b5b2b760b91b60648201526084016107cd565b60006001600160a01b038216610dce5760405162461bcd60e51b815260206004820152602a60248201527f4552433732313a2062616c616e636520717565727920666f7220746865207a65604482015269726f206164647265737360b01b60648201526084016107cd565b506001600160a01b031660009081526003602052604090205490565b600b546001600160a01b03163314610e145760405162461bcd60e51b81526004016107cd90612411565b610c3c60006117e0565b600b546001600160a01b03163314610e485760405162461bcd60e51b81526004016107cd90612411565b610c3c611832565b6060600180546106d5906122c8565b610e6a3383836118ba565b5050565b610e7833836113fe565b610e945760405162461bcd60e51b81526004016107cd90612303565b610ea084848484611989565b50505050565b60006002600a541415610ecb5760405162461bcd60e51b81526004016107cd90612354565b6002600a553467016345785d8a000014610f275760405162461bcd60e51b815260206004820152601b60248201527f53796e7468657469634e46543a20696e76616c6964207072696365000000000060448201526064016107cd565b604080516001600160a01b0385166020820152908101839052600090819060600160408051601f1981840301815291815281516020928301206000818152600e90935291205490915015610ff9576000818152600e60205260409020549150610fa7826000908152600260205260409020546001600160a01b0316151590565b15610ff45760405162461bcd60e51b815260206004820152601c60248201527f53796e7468657469634e46543a20616c7265616479206d696e7465640000000060448201526064016107cd565b611021565b601180549060006110098361245c565b909155506000828152600e6020526040902081905591505b6000828152600c6020908152604080832080546001600160a01b0319166001600160a01b038a16179055600d8252808320879055600f9091528120805467016345785d8a000092906110749084906123f9565b90915550611084905086836119bc565b83856001600160a01b0316876001600160a01b03167f458f5fa412d0f69b08dd84872b0215675cc67bc1d5b6fd93300a1c3878b861968567016345785d8a00006040516110db929190918252602082015260400190565b60405180910390a4506001600a55949350505050565b6000818152600260205260409020546060906001600160a01b031661116e5760405162461bcd60e51b815260206004820152602d60248201527f53796e7468657469634e46543a2055524920717565727920666f72206e6f6e6560448201526c3c34b9ba32b73a103a37b5b2b760991b60648201526084016107cd565b6000828152600c6020908152604080832054600d90925280832054905163c87b56dd60e01b81526001600160a01b039092169163c87b56dd916111b79160040190815260200190565b600060405180830381865afa1580156111d4573d6000803e3d6000fd5b505050506040513d6000823e601f3d908101601f191682016040526111fc9190810190612477565b9392505050565b6060600061121083610d63565b905060008167ffffffffffffffff81111561122d5761122d612137565b604051908082528060200260200182016040528015611256578160200160208202803683370190505b50905060005b8281101561129d5761126e8582610aaa565b82828151811061128057611280612446565b6020908102919091010152806112958161245c565b91505061125c565b509392505050565b600b546001600160a01b031633146112cf5760405162461bcd60e51b81526004016107cd90612411565b6001600160a01b0381166113345760405162461bcd60e51b815260206004820152602660248201527f4f776e61626c653a206e6577206f776e657220697320746865207a65726f206160448201526564647265737360d01b60648201526084016107cd565b61133d816117e0565b50565b60006001600160e01b031982166380ac58cd60e01b148061137157506001600160e01b03198216635b5e139f60e01b145b806106c057506301ffc9a760e01b6001600160e01b03198316146106c0565b600081815260046020526040902080546001600160a01b0319166001600160a01b03841690811790915581906113c582610cec565b6001600160a01b03167f8c5be1e5ebec7d5bd14f71427d1e84f3dd0314c0f7b2291e5b200ac8c7c3b92560405160405180910390a45050565b6000818152600260205260408120546001600160a01b03166114775760405162461bcd60e51b815260206004820152602c60248201527f4552433732313a206f70657261746f7220717565727920666f72206e6f6e657860448201526b34b9ba32b73a103a37b5b2b760a11b60648201526084016107cd565b600061148283610cec565b9050806001600160a01b0316846001600160a01b031614806114bd5750836001600160a01b03166114b284610758565b6001600160a01b0316145b806114ed57506001600160a01b0380821660009081526005602090815260408083209388168352929052205460ff165b949350505050565b826001600160a01b031661150882610cec565b6001600160a01b03161461156c5760405162461bcd60e51b815260206004820152602560248201527f4552433732313a207472616e736665722066726f6d20696e636f72726563742060448201526437bbb732b960d91b60648201526084016107cd565b6001600160a01b0382166115ce5760405162461bcd60e51b8152602060048201526024808201527f4552433732313a207472616e7366657220746f20746865207a65726f206164646044820152637265737360e01b60648201526084016107cd565b6115d9838383611b0a565b6115e4600082611390565b6001600160a01b038316600090815260036020526040812080546001929061160d9084906123e2565b90915550506001600160a01b038216600090815260036020526040812080546001929061163b9084906123f9565b909155505060008181526002602052604080822080546001600160a01b0319166001600160a01b0386811691821790925591518493918716917fddf252ad1be2c89b69c2b068fc378daa952ba7f163c4a11628f55a4df523b3ef91a4505050565b60006116a782610cec565b90506116b581600084611b0a565b6116c0600083611390565b6001600160a01b03811660009081526003602052604081208054600192906116e99084906123e2565b909155505060008281526002602052604080822080546001600160a01b0319169055518391906001600160a01b038416907fddf252ad1be2c89b69c2b068fc378daa952ba7f163c4a11628f55a4df523b3ef908390a45050565b600b54600160a01b900460ff166117935760405162461bcd60e51b815260206004820152601460248201527314185d5cd8589b194e881b9bdd081c185d5cd95960621b60448201526064016107cd565b600b805460ff60a01b191690557f5db9ee0a495bf2e6ff9c91a7834c1ba4fdd244a5e8aa4e537bd38aeae4b073aa335b6040516001600160a01b03909116815260200160405180910390a1565b600b80546001600160a01b038381166001600160a01b0319831681179093556040519116919082907f8be0079c531659141344cd1fd0a4f28419497f9722a3daafe3b4186f6b6457e090600090a35050565b600b54600160a01b900460ff161561187f5760405162461bcd60e51b815260206004820152601060248201526f14185d5cd8589b194e881c185d5cd95960821b60448201526064016107cd565b600b805460ff60a01b1916600160a01b1790557f62e78cea01bee320cd4e420270b5ea74000d11b0c9f74754ebdbfc544b05a2586117c33390565b816001600160a01b0316836001600160a01b0316141561191c5760405162461bcd60e51b815260206004820152601960248201527f4552433732313a20617070726f766520746f2063616c6c65720000000000000060448201526064016107cd565b6001600160a01b03838116600081815260056020908152604080832094871680845294825291829020805460ff191686151590811790915591519182527f17307eab39ab6107e8899845ad3d59bd9653f200f220920489ca2b5937696c31910160405180910390a3505050565b6119948484846114f5565b6119a084848484611c61565b610ea05760405162461bcd60e51b81526004016107cd906124ee565b6001600160a01b038216611a125760405162461bcd60e51b815260206004820181905260248201527f4552433732313a206d696e7420746f20746865207a65726f206164647265737360448201526064016107cd565b6000818152600260205260409020546001600160a01b031615611a775760405162461bcd60e51b815260206004820152601c60248201527f4552433732313a20746f6b656e20616c7265616479206d696e7465640000000060448201526064016107cd565b611a8360008383611b0a565b6001600160a01b0382166000908152600360205260408120805460019290611aac9084906123f9565b909155505060008181526002602052604080822080546001600160a01b0319166001600160a01b03861690811790915590518392907fddf252ad1be2c89b69c2b068fc378daa952ba7f163c4a11628f55a4df523b3ef908290a45050565b600b54600160a01b900460ff1615611b575760405162461bcd60e51b815260206004820152601060248201526f14185d5cd8589b194e881c185d5cd95960821b60448201526064016107cd565b611b62838383611d5f565b816001600160a01b0316836001600160a01b031614158015611b8c57506001600160a01b03831615155b8015611ba057506001600160a01b03821615155b15610903576000818152600f6020526040812054906064611bc26005846123a1565b611bcc91906123c0565b905080600f60008581526020019081526020016000206000828254611bf191906123e2565b925050819055508060106000828254611c0a91906123f9565b9091555050604080518381526020810183905284916001600160a01b0380881692908916917f5f57a887341e52cf414874998a4ed5d9429f7c07960b756834e56cad4a1e6657910160405180910390a45050505050565b60006001600160a01b0384163b15611d5457604051630a85bd0160e11b81526001600160a01b0385169063150b7a0290611ca5903390899088908890600401612540565b6020604051808303816000875af1925050508015611ce0575060408051601f3d908101601f19168201909252611cdd9181019061257d565b60015b611d3a573d808015611d0e576040519150601f19603f3d011682016040523d82523d6000602084013e611d13565b606091505b508051611d325760405162461bcd60e51b81526004016107cd906124ee565b805181602001fd5b6001600160e01b031916630a85bd0160e11b1490506114ed565b506001949350505050565b6001600160a01b038316611dba57611db581600880546000838152600960205260408120829055600182018355919091527ff3f7a9fe364faab93b216da50a3214154f22a0a2b415b23a84c8169e8b636ee30155565b611ddd565b816001600160a01b0316836001600160a01b031614611ddd57611ddd8382611e17565b6001600160a01b038216611df45761090381611eb4565b826001600160a01b0316826001600160a01b031614610903576109038282611f63565b60006001611e2484610d63565b611e2e91906123e2565b600083815260076020526040902054909150808214611e81576001600160a01b03841660009081526006602090815260408083208584528252808320548484528184208190558352600790915290208190555b5060009182526007602090815260408084208490556001600160a01b039094168352600681528383209183525290812055565b600854600090611ec6906001906123e2565b60008381526009602052604081205460088054939450909284908110611eee57611eee612446565b906000526020600020015490508060088381548110611f0f57611f0f612446565b6000918252602080832090910192909255828152600990915260408082208490558582528120556008805480611f4757611f4761259a565b6001900381819060005260206000200160009055905550505050565b6000611f6e83610d63565b6001600160a01b039093166000908152600660209081526040808320868452825280832085905593825260079052919091209190915550565b6001600160e01b03198116811461133d57600080fd5b600060208284031215611fcf57600080fd5b81356111fc81611fa7565b60005b83811015611ff5578181015183820152602001611fdd565b83811115610ea05750506000910152565b6000815180845261201e816020860160208601611fda565b601f01601f19169290920160200192915050565b6020815260006111fc6020830184612006565b60006020828403121561205757600080fd5b5035919050565b80356001600160a01b038116811461207557600080fd5b919050565b6000806040838503121561208d57600080fd5b6120968361205e565b946020939093013593505050565b6000806000606084860312156120b957600080fd5b6120c28461205e565b92506120d06020850161205e565b9150604084013590509250925092565b6000602082840312156120f257600080fd5b6111fc8261205e565b6000806040838503121561210e57600080fd5b6121178361205e565b91506020830135801515811461212c57600080fd5b809150509250929050565b634e487b7160e01b600052604160045260246000fd5b604051601f8201601f1916810167ffffffffffffffff8111828210171561217657612176612137565b604052919050565b600067ffffffffffffffff82111561219857612198612137565b50601f01601f191660200190565b600080600080608085870312156121bc57600080fd5b6121c58561205e565b93506121d36020860161205e565b925060408501359150606085013567ffffffffffffffff8111156121f657600080fd5b8501601f8101871361220757600080fd5b803561221a6122158261217e565b61214d565b81815288602083850101111561222f57600080fd5b8160208401602083013760006020838301015280935050505092959194509250565b6020808252825182820181905260009190848201906040850190845b818110156122895783518352928401929184019160010161226d565b50909695505050505050565b600080604083850312156122a857600080fd5b6122b18361205e565b91506122bf6020840161205e565b90509250929050565b600181811c908216806122dc57607f821691505b602082108114156122fd57634e487b7160e01b600052602260045260246000fd5b50919050565b60208082526031908201527f4552433732313a207472616e736665722063616c6c6572206973206e6f74206f6040820152701ddb995c881b9bdc88185c1c1c9bdd9959607a1b606082015260800190565b6020808252601f908201527f5265656e7472616e637947756172643a207265656e7472616e742063616c6c00604082015260600190565b634e487b7160e01b600052601160045260246000fd5b60008160001904831182151516156123bb576123bb61238b565b500290565b6000826123dd57634e487b7160e01b600052601260045260246000fd5b500490565b6000828210156123f4576123f461238b565b500390565b6000821982111561240c5761240c61238b565b500190565b6020808252818101527f4f776e61626c653a2063616c6c6572206973206e6f7420746865206f776e6572604082015260600190565b634e487b7160e01b600052603260045260246000fd5b60006000198214156124705761247061238b565b5060010190565b60006020828403121561248957600080fd5b815167ffffffffffffffff8111156124a057600080fd5b8201601f810184136124b157600080fd5b80516124bf6122158261217e565b8181528560208385010111156124d457600080fd5b6124e5826020830160208601611fda565b95945050505050565b60208082526032908201527f4552433732313a207472616e7366657220746f206e6f6e20455243373231526560408201527131b2b4bb32b91034b6b83632b6b2b73a32b960711b606082015260800190565b6001600160a01b038581168252841660208201526040810183905260806060820181905260009061257390830184612006565b9695505050505050565b60006020828403121561258f57600080fd5b81516111fc81611fa7565b634e487b7160e01b600052603160045260246000fdfea2646970667358221220eb99c7a929413dbec17fed0ad14bba48c6ebace7fce47bee52e9cd2ae49e361964736f6c634300080a0033",
        "linkReferences": {}
    }
}